:020000040000FA
:060000000A128A110C280F
:10000800FE00030EF0000A08F1000A128A11872D7B
:100018000A128A110F2883120313DF01E001E1019C
:10002800E201E30183010A128A111A280A128A11CD
:1000380047230A128A110A128A1192220A128A1175
:10004800831203136208B1003108E1006308B100AC
:100058003108DF005F08B1003108DE006008B10038
:100068003108DD006108B1003108DC000A128A118C
:10007800BD250A128A11F601F60A01300A128A1100
:10008800EF220A128A110B30F7008030F8000A12AA
:100098008A1194230A128A111D3083120313B100A6
:1000A8003108A4005E08B200B3013208A500330885
:1000B800A60034300A128A1140210A128A111D3012
:1000C80083120313B1003108A4005C08B200B30125
:1000D8003208A5003308A60048300A128A114021C8
:1000E8000A128A11023083120313B1003108F60094
:1000F80002300A128A11EF220A128A113430F700EC
:100108000030F8000A128A1194230A128A110E305C
:1001180083120313B1003108F60002300A128A1163
:10012800EF220A128A114830F7000030F8000A124C
:100138008A1194230A128A11831203135D03031D83
:10014800A628A728BB280830B1003108F6000230DD
:100158000A128A11EF220A128A112530F70080301C
:10016800F8000A128A1194230A128A11CE2808303C
:10017800B1003108F60002300A128A11EF220A1281
:100188008A112130F7008030F8000A128A1194236E
:100198000A128A110B3083120313B3002630B200FF
:1001A8005D30B100B10BD628B20BD628B30BD628D8
:1001B8000A128A11EA250A128A115130F200003017
:1001C800F3000A128A11D7250A128A110030F200A8
:1001D800F3000A128A1137250A128A11720883124B
:1001E8000313B1003108E3000A128A11E1250A124B
:1001F8008A11023083120313B3000430B200B930FD
:10020800B100B10B0529B20B0529B30B05290C293F
:100218000A128A11EA250A128A116130F2000030A6
:10022800F3000A128A11D7250A128A110030F20047
:10023800F3000A128A1137250A128A1172088312EA
:100248000313B1003108E2000A128A11E1250A12EB
:100258008A11023083120313B3000430B200B9309C
:10026800B100B10B3529B20B3529B30B35293C291F
:1002780024280A128A110C2883120313AF00253090
:10028800A7002708AA00132A2530300603194D298C
:100298004E295A293008A7002F08840027088313FD
:1002A80080000130A7002708AF07132AAB010130EF
:1002B800A407FF30240784000A128A110A250A12AB
:1002C8008A11B000A700A8012808003A03196D296F
:1002D800132A2708003A0319252A643A03197829AA
:1002E8000D3A03197829132A2A0884008313000871
:1002F800AD00840A0008AE000230A7002708AA074C
:10030800AE1F8729882991290330A7002708AB0445
:10031800AD09AE09AD0A0319AE0AB001B00A30083A
:10032800A7002707013E84000A128A110A250A122B
:100338008A11A8000A128A110A250A128A11A9002C
:1003480029082E02031DAA2928082D020318AD2901
:10035800AE29AF29B9290130A7002708B007053011
:100368003006031DB829B92993292B080339031925
:10037800BE29BF29CA292D30A7002F0884002708C5
:10038800831380000130A7002708AF073008A700B3
:100398002708AC000A2A0A30A0000030A1002C0867
:1003A800A7002707013E84000A128A110A250A12AB
:1003B8008A11F2000A128A110A250A128A11F30018
:1003C8002E08F5002D08F4000A128A11DA230A1201
:1003D8008A11730883120313A3007208A2000A1279
:1003E8008A111E240A128A11831203132008303E30
:1003F800A8002808B0003008A7002F0884002708A4
:10040800831380000130A7002708AF07FF30A7003B
:100418002708AC072C0A031D122A132ACF290130FA
:10042800A407FF30240784000A128A110A250A1239
:100438008A11A7002708B0003008031D242A252A9E
:1004480048292F0884008313800108000030831294
:100458000313A3000030A2000030A1000030A00068
:10046800750874047304720403193B2A3C2A892A08
:10047800A401A40A4C2A0130FA000310F20DF30D6E
:10048800F40DF50DFA0B412A0130FA007A08A40799
:10049800F51F4F2A502A3F2A0130FA000310A00DF9
:1004A800A10DA20DA30DFA0B522A75087902031D9E
:1004B800672A74087802031D672A73087702031DE8
:1004C800672A72087602031C6A2A6B2A7A2A72083B
:1004D800F6027308031C730FF7027408031C740FE9
:1004E800F8027508031C750FF90220140130031077
:1004F800F50CF40CF30CF20CFF3E031D7B2A0130C3
:10050800A402031D882A892A502A2308F5002208F4
:10051800F4002108F3002008F200080000300A1255
:100528008A1165250A128A113430F700F130F60075
:10053800F60B9C2AF70B9C2AA12A03300A128A116F
:10054800A3250A128A110D30F700FB30F600F60BCE
:10055800AB2AF70BAB2AB02A03300A128A11A3255B
:100568000A128A111D30F7009130F600F60BBA2AEC
:10057800F70BBA2A03300A128A11A3250A128A1124
:1005880002300A128A11A3250A128A1102300A12AD
:100598008A11A3250A128A1108300A128A11A32582
:1005A8000A128A1100300A128A11A3250A128A1126
:1005B8000C300A128A11A3250A128A1100300A1275
:1005C8008A11A3250A128A1106300A128A11A32554
:1005D8000A128A11080083120313A0002003031DC6
:1005E800F62AF72A1C2B76087F3EF7007708A30027
:1005F8002308F70004300310F70CFF3E031DFF2A01
:100608007708F8007808A10023080F39F700770861
:10061800A20021080A128A11A3250A128A1183123C
:10062800031322080A128A11A3250A128A11462BDB
:1006380002302006031D212B222B462B7608BF3EB5
:10064800F7007708A3002308F70004300310F70C1D
:10065800FF3E031D2A2B7708F8007808A10023081D
:100668000F39F7007708A20021080A128A11A3257A
:100678000A128A118312031322080A128A11A32567
:100688000A128A110800831603130F128F160F1708
:100698000F148316031788018901831603130614A0
:1006A80007108801850183120313850186018701DC
:1006B80088018901831603138113013095001614EC
:1006C8001812181583160317871119308316031388
:1006D800990001309A0083120313981718131816FB
:1006E8008316031318139816831203138C120C1213
:1006F8008B170B17831603138C120C120B148B1504
:10070800003083120313A8000130A7008630A6002A
:10071800A030A5000A128A1193240A128A1108002F
:1007280083120313A001A101BD2B20087707FA004B
:100738007808F9000318F90AA01FA32BF903790810
:10074800FB007B0883120313FF007A0884000A1257
:100758008A1100250A128A110A128A115A240A12C9
:100768008A11013083120313A0070318A10A00306D
:10077800A10720087707FA007808F9000318F90A92
:10078800A01FC72BF9037908FB007B08831203130A
:10079800FF007A0884000A128A1100250A128A11B9
:1007A800003A031DD82BD92B992B0800F701F80123
:1007B800720873040319E12BE22B192CF901F90AC9
:1007C800F02B01300310F20DF30DFF3E031DE62B55
:1007D8000130F6007608F907F31FF32BF42BE52B0D
:1007E80001300310F70DF80DFF3E031DF52B7308BC
:1007F8007502031D012C72087402031C042C052CBD
:100808000C2C7208F4027308031CF503F502771424
:1008180001300310F30CF20CFF3E031D0D2C0130C8
:10082800F902031D182C192CF42B7808F30077080B
:10083800F200080083120313200821040319252C51
:10084800262C552CFB01FB0A342C01300310A00D7B
:10085800A10DFF3E031D2A2C0130FA007A08FB0780
:10086800A11F372C382C292C21082302031D3E2CCC
:1008780020082202031C412C422C482C2008A202EA
:100888002108031CA303A30201300310A10CA00C30
:10089800FF3E031D492C0130FB02031D542C552C2F
:1008A800382C2308A1002208A0000800F6007608CA
:1008B8000F39F3007308F4007608F039F300730871
:1008C800F5008312031308157508F30004300310AC
:1008D800F30CFF3E031D6B2C73080A128A11652561
:1008E8000A128A118312031388151A30F300F30BC6
:1008F8007B2C000083120313881174080A128A11D2
:1009080065250A128A118312031388151A30F30019
:10091800F30B8C2C00008312031388110800283075
:100928008312031394008316031391018312031394
:100938002508A9002608AA002708AB002808AC004B
:1009480002300310A90DAA0DAB0DAC0DFF3E031D1F
:10095800A52C2C08F5002B08F4002A08F300290818
:10096800F2000030F9007A30F8001230F700003059
:10097800F6000A128A112A220A128A117208FF3E08
:0E0988008316031393009401871507160800C9
:100A0000FF1B0A2D83137F1883170008840A03191C
:100A1000FF0A080005308A000408840A82070034AF
:100A2000013400340A34003464340034E8340334CC
:100A30001034273443344F344E3454343A34203451
:100A400053345434413454343A34203454344534D7
:100A50004D3450343A340034253464342034003476
:100A60004F344634463400344F344E3400340A1286
:100A70008A11CA250A128A118316031391150A12C4
:100A80008A11CA250A128A11831203131308F4006B
:100A9000F5017408F6007508F7000A128A11CA25D4
:100AA0000A128A1172037304031D572D582D5C2DF1
:100AB0008316031391125F2D8316031391161116DB
:100AC0007708F3007608F2000800F200721C692D26
:100AD0006A2D6E2D831203130816712D83120313D2
:100AE0000812F21C742D752D772D8816782D88121A
:100AF000721D7B2D7C2D7E2D08177F2D0813F21D76
:100B0000822D832D852D8817862D881308000B1CB8
:100B10008A2D8B2D9C2D831203130618902D912D59
:100B2000952D0814E001E00A9B2D061C982D992DA7
:100B30009B2D0810E0010B1071088A00700E8300D5
:100B4000FE0E7E0E0900F5008312031308117508CE
:100B50000A128A1165250A128A1183120313881555
:100B60000B30F4006230F300F30BB42DF40BB42D12
:100B70000000831203138811080000300A128A1142
:100B8000A3250A128A1101300A128A11A3250A121A
:100B90008A110800831603131419CF2DD02DCA2DE6
:100BA00011081F39031DD52DD62DCA2D08000A1294
:100BB0008A11CA250A128A1172088312031393003C
:100BC00008000A128A11CA250A128A118316031311
:100BD000111508000A128A11CA250A128A118316F1
:060BE000031311140800CC
:04400E00D420FF3F7C
:00000001FF
