:020000040000FA
:060000000A128A110C280F
:10000800FE00030EF0000A08F1000A128A158B2F71
:100018000A128A110F28FA01FB0183120313BD018A
:10002800BE01BF01C001C101C201C301C401C501B4
:10003800C60183160313CB0183010A128A112D28E6
:10004800FF0000308A007F08820729280A128A15D3
:10005800292F0A128A11BF260A128A110A128A1136
:10006800B1250A128A11831203134508BA003A0807
:10007800C4004608BA003A08C2004208BA003A0862
:1000880083160313CA00831203134308BA003A08FD
:1000980083160313C900831203134408BA003A08ED
:1000A80083160313C8000A128A1549270A128A11EF
:1000B800F601F60A01300A128A1167260A128A1115
:1000C8003830F7008030F8000A128A110C270A121B
:1000D8008A115B3083120313BA003A08B100831601
:1000E80003134A0883120313BB00BC013B08B20088
:1000F8003C08B300A0300A128A15A7270A128A11F1
:100108005B3083120313BA003A08B1008316031355
:10011800480883120313BB00BC013B08B2003C082B
:10012800B300B4300A128A15A7270A128A110230BE
:1001380083120313BA003A08F60002300A128A1131
:1001480067260A128A11A030F7000030F8000A1258
:100158008A110C270A128A110E3083120313BA006F
:100168003A08F60002300A128A1167260A128A1122
:10017800B430F7000030F8000A128A110C270A126E
:100188008A11831603134903031DCB28CC28E228C0
:10019800083083120313BA003A08F60002300A1234
:1001A8008A1167260A128A116330F7008030F80036
:1001B8000A128A110C270A128A11F72808308312AA
:1001C8000313BA003A08F60002300A128A116726A9
:1001D8000A128A115F30F7008030F8000A128A117B
:1001E8000C270A128A110B3083120313BC00263025
:1001F800BB005D30BA00BA0BFF28BB0BFF28BC0B55
:10020800FF280A128A1517270A128A115130F2009C
:100218000030F3000A128A1532270A128A110030B8
:10022800F200F3000A128A11D2270A128A11720800
:1002380083120313BA003A08C6000A128A15202747
:100248000A128A11023083120313BC000430BB0067
:10025800B930BA00BA0B2E29BB0B2E29BC0B2E299C
:1002680035290A128A1517270A128A116130F200F5
:100278000030F3000A128A1532270A128A11003058
:10028800F200F3000A128A11D2270A128A117208A0
:1002980083120313BA003A08C5000A128A152027E8
:1002A8000A128A11023083120313BC000430BB0007
:1002B800B930BA00BA0B5E29BB0B5E29BC0B5E29AC
:1002C80065290A128A11A4220A128A1137280A12E9
:1002D8008A110C2883120313B0008D2A25302F06AB
:1002E8000319772978299E29300A84008313000886
:1002F80003197F2980298F292F08A8002808F200D0
:10030800300A840000080A128A1124200A128A116D
:100318008312031371292F08A800300884000008ED
:100328008400280880000130A800300884002808CC
:1003380080077129AB010130A607FF30260784002A
:100348000A128A110A240A128A11AF00A800A90108
:100358002908003A0319B1298D2A2808003A0319F7
:10036800A12A643A0319BC290D3A0319BC298D2A1C
:100378002708840083130008A80002308007280893
:1003880084000008AD00840A0008AE00AE1FCD2925
:10039800CE29D7290330A8002808AB04AD09AE0937
:1003A800AD0A0319AE0AAF01AF0A2F08A800280743
:1003B800013E84000A128A110A240A128A11A9002D
:1003C8000A128A110A240A128A11AA002A082E027D
:1003D800031DF02929082D020318F329F429F5290A
:1003E800FF290130A8002808AF0705302F06031D94
:1003F800FE29FF29D9292B0803390319042A052ABC
:10040800282A300A84008313000803190C2A0D2AAD
:100418001A2A2D30A8002808F200300A84000008A3
:100428000A128A1124200A128A11282A2D30A800BB
:100438003008840000088400280880000130A800E3
:100448003008840028088007831203132F08A800A7
:100458002808AC00822A0A30A0000030A1002C082D
:10046800A8002807013E84000A128A110A240A12E9
:100478008A11F2000A128A110A240A128A11F30058
:100488002E08F5002D08F4000A128A1152270A12C4
:100498008A11730883120313A3007208A2000A12B8
:1004A8008A1196270A128A11831203132008303EF4
:1004B800A9002908AF00300A840083130008031933
:1004C800662A672A742A2F08A8002808F200300A2A
:1004D800840000080A128A1124200A128A11822A2A
:1004E8002F08A8003008840000088400280880002D
:1004F8000130A8003008840028088007FF308312E4
:100508000313A8002808AC072C0A031D8C2A8D2A7F
:100518002F2A013083120313A607FF302607840011
:100528000A128A110A240A128A11A8002808AF00A0
:100538002F08031DA02AA12A7229A601A7010800D5
:10054800023083120313B9004530B800A930B70050
:10055800B70BAC2AB80BAC2AB90BAC2A831203131D
:1005680042080A128A1175240A128A1123300A12C3
:100578008A1570270A128A11023083120313B900F0
:100588004530B800A930B700B70BC82AB80BC82A3D
:10059800B90BC82A8312031340089900023083124A
:1005A8000313B9004530B800A930B700B70BDA2AF1
:1005B800B80BDA2AB90BDA2A831203133F08990019
:1005C800023083120313B9004530B800A930B700D0
:1005D800B70BEC2AB80BEC2AB90BEC2A21300A121B
:1005E8008A1570270A128A11023083120313B90080
:1005F8004530B800A930B700B70B002BB80B002B5B
:10060800B90B002B8312031343080A128A117524AD
:100618000A128A114A300A128A1570270A128A1198
:10062800023083120313B9004530B800A930B7006F
:10063800B70B1C2BB80B1C2BB90B1C2B83120313E9
:100648003F089900023083120313B9004530B800FF
:10065800A930B700B70B2E2BB80B2E2BB90B2E2BAE
:1006680021300A128A1570270A128A110230831261
:100678000313B9004530B800A930B700B70B422BB7
:10068800B80B422BB90B422B8312031344080A12EE
:100698008A1175240A128A110B300A128A157027DA
:1006A8000A128A11023083120313B9004530B800C8
:1006B800A930B700B70B5E2BB80B5E2BB90B5E2BBE
:1006C8008312031341089900023083120313B900FF
:1006D8004530B800A930B700B70B702BB80B702B9A
:1006E800B90B702B83120313400899000230831250
:1006F8000313B9004530B800A930B700B70B822BF7
:10070800B80B822BB90B822B831203133F08990075
:10071800023083120313B9004530B800A930B7007E
:10072800B70B942BB80B942BB90B942B21300A12CE
:100738008A1570270A128A110800F60076080F3900
:10074800F3007308F4007608F039F3007308F50035
:100758008312031308157508F30004300310F30C13
:10076800FF3E031DB22B73080A128A11DA230A12FC
:100778008A118312031388151A30F300F30BC22B66
:10078800000083120313881174080A128A11DA23ED
:100798000A128A118312031388151A30F300F30B17
:1007A800D32B00008312031388110800F200721C77
:1007B800DE2BDF2BE32B831203130816E62B8312A1
:1007C80003130812F21CE92BEA2BEC2B8816ED2BED
:1007D8008812721DF02BF12BF32B0817F42B08133A
:1007E800F21DF72BF82BFA2B8817FB2B8813080020
:10080000FF1B0A2C83137F1883170008840A03191F
:10081000FF0A080004308A000408840A82070034B2
:10082000013400340A34003464340034E8340334CE
:1008300010342734563461346C346F3472342034BD
:10084000643465346C342034743465346D347034FD
:1008500065347234613474347534723461343A34CA
:100860000D340034563461346C346F3472342034B7
:10087000643465346C34203463346F346E347434CF
:10088000613464346F3472343A340D340034433498
:100890004F344E3454343A34203453345434413485
:1008A00054343A342034543445344D3450343A348A
:1008B0000034563461346C346F3472342034643410
:1008C00065346C34203461346734753461343A34BF
:1008D0000D34003425346434203400344F3446342D
:1008E000463400344F344E340034F9006430F200A2
:1008F0000030F300790883120313A400A501240833
:10090000F4002508F5000A128A11E0240A128A115F
:10091000720883120313A6002608C1006430F20097
:100920000030F3007908A400A5012408F40025088C
:10093000F5000A128A110E260A128A117208831211
:100940000313A6002608FA000A30F2000030F30074
:100950007A08A400A5012408F4002508F5000A126D
:100960008A11E0240A128A11720883120313A60066
:100970002608C0000A30F2000030F3007A08A40014
:10098000A5012408F4002508F5000A128A110E2694
:100990000A128A11720883120313A6002608BF00E8
:1009A0004108303EA4002408C1004008303EA400A5
:1009B0002408C0003F08303EA4002408BF000800FF
:1009C00083120313A101F31FE62CE72CEE2CF2098E
:1009D000F309F20A0319F30AA101A10AF51FF12C88
:1009E000F22CFB2CF409F509F40A0319F50A01307D
:1009F000F6007608A106A201A30172087304031988
:100A0000022D032D3A2DA001A00A112D0130031053
:100A1000F20DF30DFF3E031D072D0130F6007608A1
:100A2000A007F31F142D152D062D01300310A20D64
:100A3000A30DFF3E031D162D73087502031D222D05
:100A400072087402031C252D262D2D2D7208F40228
:100A50007308031CF503F502221401300310F30C94
:100A6000F20CFF3E031D2E2D0130A002031D392D77
:100A70003A2D152D210803193E2D3F2D442DA20995
:100A8000A309A20A0319A30A2308F3002208F2000B
:100A90000800003083120313A4000030A3000030CC
:100AA000A2000030A10075087404730472040319D5
:100AB0005A2D5B2DA82DA501A50A6B2D0130A00094
:100AC0000310F20DF30DF40DF50DA00B602D0130A8
:100AD000A0002008A507F51F6E2D6F2D5E2D01309B
:100AE000A0000310A10DA20DA30DA40DA00B712D4C
:100AF00075087902031D862D74087802031D862D62
:100B000073087702031D862D72087602031C892D57
:100B10008A2D992D7208F6027308031C730FF702D1
:100B20007408031C740FF8027508031C750FF90292
:100B3000211401300310F50CF40CF30CF20CFF3E01
:100B4000031D9A2D0130A502031DA72DA82D6F2D81
:100B50002408F5002308F4002208F3002108F2001D
:100B6000080000300A128A11DA230A128A1134307E
:100B7000F700F130F600F60BBB2DF70BBB2DC02DA7
:100B800003300A128A1556270A128A110D30F7000F
:100B9000FB30F600F60BCA2DF70BCA2DCF2D033014
:100BA0000A128A1556270A128A111D30F700913051
:100BB000F600F60BD92DF70BD92D03300A128A1542
:100BC00056270A128A1102300A128A1556270A126B
:100BD0008A1102300A128A1556270A128A11083021
:100BE0000A128A1556270A128A1100300A128A152B
:100BF00056270A128A110C300A128A1556270A1231
:100C00008A1100300A128A1556270A128A110630F4
:100C10000A128A1556270A128A110800F801F51FD0
:100C2000122E132E1A2EF409F509F40A0319F50AE7
:100C3000F801F80AF31F1D2E1E2E232EF209F309C8
:100C4000F20A0319F30A720873040319282E292ED5
:100C5000582EF701F70A372E01300310F20DF30D6D
:100C6000FF3E031D2D2E0130F6007608F707F31F17
:100C70003A2E3B2E2C2E73087502031D412E72084E
:100C80007402031C442E452E4B2E7208F402730886
:100C9000031CF503F50201300310F30CF20CFF3EC8
:100CA000031D4C2E0130F702031D572E582E3B2EEC
:100CB000780803195C2E5D2E622EF409F509F40AFA
:100CC0000319F50A7508F3007408F200080083128E
:100CD0000313A0002003031D6E2E6F2E942E7608A2
:100CE0007F3EF7007708A3002308F70004300310C5
:100CF000F70CFF3E031D772E7708F8007808A10057
:100D000023080F39F7007708A20021080A128A1574
:100D100056270A128A118312031322080A128A150F
:100D200056270A128A11BE2E02302006031D992E64
:100D30009A2EBE2E7608BF3EF7007708A300230840
:100D4000F70004300310F70CFF3E031DA22E7708B6
:100D5000F8007808A10023080F39F7007708A200EF
:100D600021080A128A1556270A128A1183120313C0
:100D700022080A128A1556270A128A1108008316B9
:100D800003130F128F160F170F1483160317880102
:100D90008901831603130614071088018501831245
:100DA00003138501860187018801890183160313D6
:100DB00081130130950016141812181583160317A5
:100DC0008711193083160313990001309A0083129A
:100DD000031398171813181683160313181398166D
:100DE000831203138C120C128B170B178316031329
:100DF0008C120C120B148B15003083120313A900F4
:100E00000130A8008630A700A030A6000A128A157B
:100E1000C8270A128A11080083120313A301A40130
:100E2000352F23087707A1007808A0000318A00A2F
:100E3000A31F1B2FA003831203132008A200220864
:100E4000FF00210884000A128A1100240A128A1164
:100E50000A128A11A1230A128A1101308312031384
:100E6000A3070318A40A0030A40723087707A100EA
:100E70007808A0000318A00AA31F3F2FA003831225
:100E800003132008A2002208FF00210884000A1290
:100E90008A1100240A128A11003A031D502F512F83
:100EA000112F0800F801F901720873040319592F72
:100EB0005A2F912FF701F70A682F01300310F20D16
:100EC000F30DFF3E031D5E2F0130F6007608F70795
:100ED000F31F6B2F6C2F5D2F01300310F80DF90DF0
:100EE000FF3E031D6D2F73087502031D792F7208D5
:100EF0007402031C7C2F7D2F842F7208F402730868
:100F0000031CF503F502781401300310F30CF20C06
:100F1000FF3E031D852F0130F702031D902F912FF7
:100F20006C2F7908F3007808F2000800831203138D
:100F30002008210403199D2F9E2FCD2FA501A50A5E
:100F4000AC2F01300310A00DA10DFF3E031DA22FF9
:100F50000130A4002408A507A11FAF2FB02FA12F97
:100F600021082302031DB62F20082202031CB92FDB
:100F7000BA2FC02F2008A2022108031CA303A3023A
:100F800001300310A10CA00CFF3E031DC12F013046
:100F9000A502031DCC2FCD2FB02F2308A1002208BE
:100FA000A00008000A128A153C270A128A1183162B
:100FB000031391150A128A153C270A128A1183120B
:100FC00003131308F400F5017408F6007508F70020
:100FD0000A128A153C270A128A1172037304031D30
:100FE000F22FF32FF72F831603139112FA2F831684
:100FF0000313911611167708F3007608F200080023
:101E2E000A128A153C270A128A15831603131114F7
:101E3E0008000A128A153C270A128A158316031304
:101E4E0011150800831203130C1E2E2F2F2F292F6E
:101E5E007208990008000A128A153C270A128A1580
:101E6E0072088312031393000800831603131419C8
:101E7E00412F422F3C2F11081F39031D472F482F8A
:101E8E003C2F080000300A128A1556270A128A15AE
:101E9E0001300A128A1556270A128A150800F50013
:101EAE0083120313081175080A128A11DA230A1213
:101EBE008A158312031388150B30F4006230F30079
:101ECE00F30B672FF40B672F000083120313881197
:101EDE00080083120313B400B5010130B1003108BC
:101EEE00B6007030B1003108B3003408B1003108CB
:101EFE00A6003330B2003208A70035300A128A111C
:101F0E006E210A128A1508000B1C8E2F8F2FA02F00
:101F1E00831203130618942F952F992F0814C301BB
:101F2E00C30A9F2F061C9C2F9D2F9F2F0810C301A5
:101F3E000B1071088A00700E8300FE0E7E0E0900D3
:101F4E0083120313B6003608B4003408B800B90182
:101F5E003230B4003408B7003108B4003408A6009B
:101F6E003730B5003508A70038300A128A116E21B5
:101F7E000A128A1583120313380884008313800112
:101F8E000800283083120313940083160313910163
:101F9E00831203132608AA002708AB002808AC00FA
:101FAE002908AD0002300310AA0DAB0DAC0DAD0D1E
:101FBE00FF3E031DDA2F2D08F5002C08F4002B0828
:101FCE00F3002A08F2000030F9007A30F8001230DF
:101FDE00F7000030F6000A128A1149250A128A15F6
:101FEE007208FF3E8316031393009401871507169C
:021FFE000800D9
:04400E00D420FF3F7C
:00000001FF
