:020000040000FA
:060000000A128A11F82F1C
:100CA6000A128A116F260A128A1183160313111467
:100CB60008000A128A116F260A128A118316031374
:100CC600111508000A128A116F260A128A11700875
:100CD6008312031393000800831603131419742E4A
:100CE600752E6F2E11081F39031D7A2E7B2E6F2E3F
:100CF60008000A128A116F260A128A118316031334
:100D060091150A128A116F260A128A118312031389
:100D16001308F200F3017208F4007308F5000A12D2
:100D26008A116F260A128A1170037104031D9C2E04
:100D36009D2EA12E831603139112A42E8316031340
:100D4600911611167508F1007408F0000800283095
:100D56008312031394008316031391018312031362
:100D66002008A4002108A5002208A6002308A70041
:100D760002300310A40DA50DA60DA70DFF3E031D01
:100D8600BC2E2708F3002608F2002508F1002408E7
:100D9600F0000030F7007A30F6001230F50000302F
:100DA600F4000A128A1129270A128A117008FF3ED6
:100DB60083160313930094018715071608008316FC
:100DC6000317880189018316031388018901831299
:100DD60003138501860187018801890183160313A0
:100DE6000F128F160F170F14003083120313A30070
:100DF6000130A2008630A100A030A0000A128A119C
:100E0600AA260A128A1183160313181218158316B6
:100E160003178711193083160313990001309A00BE
:100E2600831203139817181318168316031318132F
:100E36009816831203138C120C128B170B1783163A
:100E460003138C120C120B148B1508000030FC00D7
:100E56000030FB000030FA000030F900730872041D
:100E6600710470040319382F392F862FFD01FD0AEE
:100E7600492F0130F8000310F00DF10DF20DF30DBE
:100E8600F80B3E2F0130F8007808FD07F31F4C2FB2
:100E96004D2F3C2F0130F8000310F90DFA0DFB0D14
:100EA600FC0DF80B4F2F73087702031D642F720891
:100EB6007602031D642F71087502031D642F7008E6
:100EC6007402031C672F682F772F7008F4027108CD
:100ED600031C710FF5027208031C720FF6027308E9
:100EE600031C730FF702791401300310F30CF20C94
:100EF600F10CF00CFF3E031D782F0130FD02031D9F
:100F0600852F862F4D2F7C08F3007B08F2007A0888
:100F1600F1007908F00008000A128A11E2260A1286
:100F26008A110A128A1153260A128A115130F000C8
:100F36000030F1000A128A1165260A128A11003061
:100F4600F000F1000A128A117C260A128A11700832
:100F560083120313A8002808AC000A128A115C2623
:100F66000A128A11023083120313AA000430A90060
:100F7600B930A800A80BBD2FA90BBD2FAA0BBD2FFA
:100F8600C42F0A128A1153260A128A116130F00000
:100F96000030F1000A128A1165260A128A11003001
:100FA600F000F1000A128A117C260A128A117008D2
:100FB60083120313A8002808AB000A128A115C26C4
:100FC6000A128A11023083120313AA000430A90000
:100FD600B930A800A80BED2FA90BED2FAA0BED2F0A
:100FE600F42F942F0A128A11002883120313AB01DF
:0A0FF600AC0183010A128A118F2F4B
:04400E00D420FF3F7C
:00000001FF
