:020000040000FA
:060000000A128A11FC2F18
:100CB6000A128A1177260A128A118316031311144F
:100CC60008000A128A1177260A128A11831603135C
:100CD600111508000A128A1177260A128A1170085D
:100CE60083120313930008008316031314197C2E32
:100CF6007D2E772E11081F39031D822E832E772E07
:100D060008000A128A1177260A128A11831603131B
:100D160091150A128A1177260A128A118312031371
:100D26001308F200F3017208F4007308F5000A12C2
:100D36008A1177260A128A1170037104031DA42EE4
:100D4600A52EA92E831603139112AC2E8316031318
:100D5600911611167508F1007408F0000800283085
:100D66008312031394008316031391018312031352
:100D76002008A4002108A5002208A6002308A70031
:100D860002300310A40DA50DA60DA70DFF3E031DF1
:100D9600C42E2708F3002608F2002508F1002408CF
:100DA600F0000030F7007A30F6001230F50000301F
:100DB600F4000A128A1196270A128A117008FF3E59
:100DC60083160313930094018715071608008316EC
:100DD6000317880189018316031388018901831289
:100DE6000313850186018701880189018316031390
:100DF6000F128F160F170F14003083120313A30060
:100E06000130A2008630A100A030A0000A128A118B
:100E1600B2260A128A11831603131812181583169E
:100E260003178711193083160313990001309A00AE
:100E3600831203139817181318168316031318131F
:100E46009816831203138C120C128B170B1783162A
:100E560003138C120C120B148B1508000A128A113C
:100E6600EA260A128A110A128A115B260A128A11C6
:100E76005130F0000030F1000A128A116D260A1274
:100E86008A110030F000F1000A128A1184260A1233
:100E96008A1170088312031386000A128A116426C7
:100EA6000A128A11023083120313AA000430A90021
:100EB600B930A800A80B5D2FA90B5D2FAA0B5D2FDB
:100EC600642F0A128A115B260A128A116130F00019
:100ED6000030F1000A128A116D260A128A110030BA
:100EE600F000F1000A128A1184260A128A1170088B
:100EF6008312031385000A128A1164260A128A11C4
:100F0600023083120313AA000430A900B930A800E6
:100F1600A80B8B2FA90B8B2FAA0B8B2F922F362F5B
:100F26000A128A1100280030FC000030FB00003055
:100F3600FA000030F9007308720471047004031992
:100F4600A52FA62FF32FFD01FD0AB62F0130F800BD
:100F56000310F00DF10DF20DF30DF80BAB2F013070
:100F6600F8007808FD07F31FB92FBA2FA92F013013
:100F7600F8000310F90DFA0DFB0DFC0DF80BBC2F54
:100F860073087702031DD12F72087602031DD12F35
:100F960071087502031DD12F70087402031CD42F2B
:100FA600D52FE42F7008F4027108031C710FF502A7
:100FB6007208031C720FF6027308031C730FF70204
:100FC600791401300310F30CF20CF10CF00CFF3E17
:100FD600031DE52F0130FD02031DF22FF32FBA2F5B
:100FE6007C08F3007B08F2007A08F1007908F0002B
:0A0FF600080083010A128A11312F4E
:04400E00D420FF3F7C
:00000001FF
