:020000040000FA
:060000000A128A110C280F
:10000800FE00030EF0000A08F1000A128A11412FBF
:100018000A128A110F28FA01FB0183120313E10166
:10002800E201E301E401E501E601E701E801E90194
:10003800EA01EB0183010A128A1122280A128A11A5
:1000480036250A128A110A128A1128240A128A11DC
:10005800831203136A08B3003308E9006B08B3007E
:100068003308E7006708B3003308E0006808B30006
:100078003308DF006908B3003308DE000A128A116A
:1000880077270A128A11F601F60A01300A128A1134
:10009800DE240A128A110B30F7008030F8000A12A9
:1000A8008A1183250A128A111D3083120313B300A3
:1000B8003308A6006008B400B5013408A700350865
:1000C800A80036300A128A114D210A128A111D30F1
:1000D80083120313B3003308A6005E08B400B50109
:1000E8003408A7003508A8004A300A128A114D21A1
:1000F8000A128A11023083120313B3003308F60080
:1001080002300A128A11DE240A128A113630F700E8
:100118000030F8000A128A1183250A128A110E305B
:1001280083120313B3003308F60002300A128A114F
:10013800DE240A128A114A30F7000030F8000A1249
:100148008A1183250A128A11831203135F03031D80
:10015800AE28AF28C3280830B3003308F6000230B1
:100168000A128A11DE240A128A112530F70080301B
:10017800F8000A128A1183250A128A11D628083033
:10018800B3003308F60002300A128A11DE240A127C
:100198008A112130F7008030F8000A128A1183256D
:1001A8000A128A110B3083120313B5002630B400EB
:1001B8005D30B300B30BDE28B40BDE28B50BDE28A8
:1001C8000A128A11A4270A128A115130F20000304B
:1001D800F3000A128A1191270A128A110030F200DC
:1001E800F3000A128A11F1260A128A117208831280
:1001F8000313B3003308EB000A128A119B270A1273
:100208008A11023083120313B5000430B400B930E8
:10021800B300B30B0D29B40B0D29B50B0D29142907
:100228000A128A11A4270A128A116130F2000030DA
:10023800F3000A128A1191270A128A110030F2007B
:10024800F3000A128A11F1260A128A11720883121F
:100258000313B3003308EA000A128A119B270A1213
:100268008A11023083120313B5000430B400B93088
:10027800B300B30B3D29B40B3D29B50B3D294429E7
:100288000A128A1137220A128A112C280A128A1194
:100298000C2883120313B1002730A9002908AC00E9
:1002A800202A2530320603195A295B296729320882
:1002B800A900310884002908831380000130A900AF
:1002C8002908B107202AAD010130A607FF3026070B
:1002D80084000A128A11C4260A128A11B200A900DF
:1002E800AA012A08003A03197A29202A2908003A7B
:1002F8000319322A643A031985290D3A0319852905
:10030800202A2C08840083130008AF00840A000800
:10031800B0000230A9002908AC07B01F942995291C
:100328009E290330A9002908AD04AF09B009AF0A16
:100338000319B00AB201B20A3208A9002907013E1E
:1003480084000A128A11C4260A128A11AA000A1203
:100358008A11C4260A128A11AB002B083002031D29
:10036800B7292A082F020318BA29BB29BC29C6298C
:100378000130A9002908B20705303206031DC52936
:10038800C629A0292D0803390319CB29CC29D72937
:100398002D30A9003108840029088313800001301A
:1003A800A9002908B1073208A9002908AE00172AB0
:1003B8000A30A0000030A1002E08A9002907013E3C
:1003C80084000A128A11C4260A128A11F2000A123B
:1003D8008A11C4260A128A11F3003008F5002F0882
:1003E800F4000A128A11C9250A128A1173088312A5
:1003F8000313A3007208A2000A128A110D260A121A
:100408008A11831203132008303EAA002A08B2007A
:100418003208A900310884002908831380000130BC
:10042800A9002908B107FF30A9002908AE072E0A3C
:10043800031D1F2A202ADC290130A607FF302607C2
:1004480084000A128A11C4260A128A11A9002908EE
:10045800B2003208031D312A322A55293108840096
:10046800831380010800413083120313A800ED3084
:10047800A700A70B3D2AA80B3D2A422A8312031383
:1004880067080A128A11EC220A128A114130831273
:100498000313A800ED30A700A70B502AA80B502A79
:1004A800552A7B08831203139900413083120313E2
:1004B800A800ED30A700A70B5F2AA80B5F2A642AC3
:1004C8007A08831203139900413083120313A8009A
:1004D800ED30A700A70B6E2AA80B6E2A732A4130AD
:1004E80083120313A800ED30A700A70B792AA80BE5
:1004F800792A7E2A8312031368080A128A11EC22C9
:100508000A128A11413083120313A800ED30A700A4
:10051800A70B8C2AA80B8C2A912A7A08831203131A
:100528009900413083120313A800ED30A700A70BF0
:100538009B2AA80B9B2AA02A413083120313A800E8
:10054800ED30A700A70BA62AA80BA62AAB2A831270
:10055800031369080A128A11EC220A128A1141301F
:1005680083120313A800ED30A700A70BB92AA80B24
:10057800B92ABE2A831203136508990041308312F1
:100588000313A800ED30A700A70BC82AA80BC82A98
:10059800CD2A7B0883120313990041308312031379
:1005A800A800ED30A700A70BD72AA80BD72ADC2A6A
:1005B8007A08831203139900413083120313A800A9
:1005C800ED30A700A70BE62AA80BE62AEB2A0800BD
:1005D800F9006430F2000030F30079088312031345
:1005E800A400A5012408F4002508F5000A128A11C0
:1005F80057230A128A11720883120313A6002608C9
:10060800E5006430F2000030F3007908A400A50189
:100618002408F4002508F5000A128A1185240A1214
:100628008A11720883120313A6002608E4000A3010
:10063800F2000030F3006408A400A5012408F400C7
:100648002508F5000A128A1157230A128A1172081E
:1006580083120313A6002608FB000A30F2000030BC
:10066800F3006408A400A5012408F4002508F50097
:100678000A128A1185240A128A1172088312031336
:10068800A6002608FA006508303EA4002408E50004
:100698007B08303EA4002408FB007A08303EA40002
:1006A8002408FA00080083120313A101F31F5D2B2D
:1006B8005E2B652BF209F309F20A0319F30AA1016B
:1006C800A10AF51F682B692B722BF409F509F40AA6
:1006D8000319F50A0130F6007608A106A201A30164
:1006E800720873040319792B7A2BB12BA001A00A85
:1006F800882B01300310F20DF30DFF3E031D7E2BF6
:100708000130F6007608A007F31F8B2B8C2B7D2B6E
:1007180001300310A20DA30DFF3E031D8D2B73089E
:100728007502031D992B72087402031C9C2B9D2BC8
:10073800A42B7208F4027308031CF503F5022214B3
:1007480001300310F30CF20CFF3E031DA52B013002
:10075800A002031DB02BB12B8C2B21080319B52B3C
:10076800B62BBB2BA209A309A20A0319A30A2308C3
:10077800F3002208F2000800003083120313A400DB
:100788000030A3000030A2000030A10075087404F6
:10079800730472040319D12BD22B1F2CA501A50AAF
:1007A800E22B0130A0000310F20DF30DF40DF50D4E
:1007B800A00BD72B0130A0002008A507F51FE52BBB
:1007C800E62BD52B0130A0000310A10DA20DA30D1F
:1007D800A40DA00BE82B75087902031DFD2B7408E6
:1007E8007802031DFD2B73087702031DFD2B720889
:1007F8007602031C002C012C102C7208F6027308D8
:10080800031C730FF7027408031C740FF8027508B1
:10081800031C750FF902211401300310F50CF40CB8
:10082800F30CF20CFF3E031D112C0130A502031D31
:100838001E2C1F2CE62B2408F5002308F4002208A0
:10084800F3002108F200080000300A128A111F275D
:100858000A128A113430F700F130F600F60B322C08
:10086800F70B322C372C03300A128A115D270A1233
:100878008A110D30F700FB30F600F60B412CF70B10
:10088800412C462C03300A128A115D270A128A115C
:100898001D30F7009130F600F60B502CF70B502C5A
:1008A80003300A128A115D270A128A1102300A12CD
:1008B8008A115D270A128A1102300A128A115D27ED
:1008C8000A128A1108300A128A115D270A128A113F
:1008D80000300A128A115D270A128A110C300A1296
:1008E8008A115D270A128A1100300A128A115D27BF
:1008F8000A128A1106300A128A115D270A128A1111
:100908000800F801F51F892C8A2C912CF409F509A7
:10091800F40A0319F50AF801F80AF31F942C952C28
:100928009A2CF209F309F20A0319F30A72087304FC
:1009380003199F2CA02CCF2CF701F70AAE2C0130FD
:100948000310F20DF30DFF3E031DA42C0130F60039
:100958007608F707F31FB12CB22CA32C7308750285
:10096800031DB82C72087402031CBB2CBC2CC22CAF
:100978007208F4027308031CF503F5020130031032
:10098800F30CF20CFF3E031DC32C0130F702031DCC
:10099800CE2CCF2CB22C78080319D32CD42CD92CDC
:1009A800F409F509F40A0319F50A7508F30074083F
:1009B800F200080083120313A0002003031DE52C96
:1009C800E62C0B2D76087F3EF7007708A300230856
:1009D800F70004300310F70CFF3E031DEE2C7708D8
:1009E800F8007808A10023080F39F7007708A2005B
:1009F80021080A128A115D270A128A118312031329
:100A080022080A128A115D270A128A11352D02302E
:100A18002006031D102D112D352D7608BF3EF70039
:100A28007708A3002308F70004300310F70CFF3EF3
:100A3800031D192D7708F8007808A10023080F393D
:100A4800F7007708A20021080A128A115D270A1206
:100A58008A118312031322080A128A115D270A12C7
:100A68008A110800831603130F128F160F170F141D
:100A780083160317880189018316031306140710C8
:100A88008801850183120313850186018701880186
:100A98008901831603138113013095001614181267
:100AA8001815831603178711193083160313990035
:100AB80001309A0083120313981718131816831617
:100AC800031318139816831203138C120C128B1726
:100AD8000B17831603138C120C120B148B15003092
:100AE80083120313A9000130A8008630A700A030A4
:100AF800A6000A128A1182260A128A110800831295
:100B08000313A301A401AC2D23087707A1007808DB
:100B1800A0000318A00AA31F922DA0038312031399
:100B28002008A2002208FF00210884000A128A1166
:100B3800BA260A128A110A128A1149260A128A1139
:100B4800013083120313A3070318A40A0030A40773
:100B580023087707A1007808A0000318A00AA31F9C
:100B6800B62DA003831203132008A2002208FF0059
:100B7800210884000A128A11BA260A128A11003A38
:100B8800031DC72DC82D882D0800F701F80172082C
:100B980073040319D02DD12D082EF901F90ADF2D80
:100BA80001300310F20DF30DFF3E031DD52D01306A
:100BB800F6007608F907F31FE22DE32DD42D013056
:100BC8000310F70DF80DFF3E031DE42D73087502A1
:100BD800031DF02D72087402031CF32DF42DFB2D58
:100BE8007208F4027308031CF503F5027714013048
:100BF8000310F30CF20CFF3E031DFC2D0130F9022B
:100C0800031D072E082EE32D7808F3007708F2005D
:100C1800080083120313200821040319142E152E2B
:100C2800442EA501A50A232E01300310A00DA10D05
:100C3800FF3E031D192E0130A4002408A507A11F9B
:100C4800262E272E182E21082302031D2D2E2008BC
:100C58002202031C302E312E372E2008A202210832
:100C6800031CA303A30201300310A10CA00CFF3E38
:100C7800031D382E0130A502031D432E442E272EB6
:100C88002308A1002208A0000800F60076080F3902
:100C9800F3007308F4007608F039F3007308F500E0
:100CA8008312031308157508F30004300310F30CBE
:100CB800FF3E031D5A2E73080A128A111F270A12B3
:100CC8008A118312031388151A30F300F30B6A2E66
:100CD800000083120313881174080A128A111F274F
:100CE8000A128A118312031388151A30F300F30BC2
:100CF8007B2E00008312031388110800283083120A
:100D08000313940083160313910183120313260817
:100D1800AA002708AB002808AC002908AD0002305B
:100D28000310AA0DAB0DAC0DAD0DFF3E031D942EA7
:100D38002D08F5002C08F4002B08F3002A08F2000F
:100D48000030F9007A30F8001230F7000030F60071
:100D58000A128A11C0230A128A117208FF3E8316EA
:100D6800031393009401871507160800FF1BC42E70
:100D780083137F1883170008840A0319FF0A0800E1
:100D880006308A000408840A8207003401340034DB
:100D98000A34003464340034E8340334103427341B
:100DA80043344F344E3454343A3420345334543466
:100DB800413454343A342034543445344D34503466
:100DC8003A34003425346434203400344F34463403
:100DD800463400344F344E3400340A128A118427C2
:100DE8000A128A118316031391150A128A1184278D
:100DF8000A128A11831203131308F400F501740808
:100E0800F6007508F7000A128A1184270A128A1157
:100E180072037304031D112F122F162F8316031349
:100E28009112192F83160313911611167708F300E0
:100E38007608F2000800F200721C232F242F282FB6
:100E48008312031308162B2F831203130812F21CA4
:100E58002E2F2F2F312F8816322F8812721D352FE3
:100E6800362F382F0817392F0813F21D3C2F3D2F26
:100E78003F2F8817402F881308000B1C442F452F3D
:100E8800562F8312031306184A2F4B2F4F2F08147F
:100E9800E801E80A552F061C522F532F552F08102A
:100EA800E8010B1071088A00700E8300FE0E7E0E9A
:100EB8000900F50083120313081175080A128A1134
:100EC8001F270A128A118312031388150B30F400A6
:100ED8006230F300F30B6E2FF40B6E2F00008312B9
:100EE80003138811080000300A128A115D270A12BC
:100EF8008A1101300A128A115D270A128A11080024
:100F0800831603131419892F8A2F842F11081F3968
:100F1800031D8F2F902F842F08000A128A1184270F
:100F28000A128A11720883120313930008000A1226
:100F38008A1184270A128A118316031311150800CF
:100F48000A128A1184270A128A11831603131114AC
:020F580008008F
:04400E00D420FF3F7C
:00000001FF
