:020000040000FA
:060000000A128A110C280F
:10000800FE00030EF0000A08F1000A128A11652E9C
:100018000A128A110F280A128A11EE260A128A1168
:10002800EF00E101E201E301E401E501E601E70196
:10003800E801E901EA01EB01EC01ED01FA01FB013C
:1000480083010A128A1128280A128A118C240A129A
:100058008A114E300A128A11D1220A128A11831289
:1000680003136C08B3003308EB000A30B3003308FD
:10007800E9006D080A3CB3003308E0006008B300EB
:100088003308E8006A08B3003308DF006B08B300E0
:100098003308DE00F801F80A01300A128A11D72560
:1000A8000A128A110B30F8008030F9000A128A11FE
:1000B800D9240A128A110B3083120313B500263093
:1000C800B4005D30B300B30B6728B40B6728B50BD9
:1000D8006728023083120313B3003308F800023094
:1000E8000A128A11D7250A128A11213083120313A2
:1000F800B3003308A6006008B400B5013408A700AF
:100108003508A80036300A128A1152210A128A11BB
:10011800213083120313B3003308A6005E08B4002D
:10012800B5013408A7003508A8004A300A128A1118
:1001380052210A128A11023083120313B3003308C2
:10014800F80002300A128A11D7250A128A113630AD
:10015800F8000030F9000A128A11D9240A128A110B
:100168000D3083120313B3003308F80002300A126B
:100178008A11D7250A128A114A30F8000030F9008E
:100188000A128A11D9240A128A11831203135F03EF
:10019800031DCF28D028E4280730B3003308F8001F
:1001A80002300A128A11D7250A128A111C30F80067
:1001B8008030F9000A128A11D9240A128A11F72804
:1001C8000730B3003308F80002300A128A11D72525
:1001D8000A128A112530F8008030F9000A128A11B3
:1001E800D9240A128A110A128A11E5260A128A11DA
:1001F80051300A128A11B2260A128A110A128A1179
:100208009B260A128A1183120313B3003308ED00E8
:100218000A128A11DC260A128A1102308312031389
:10022800B5000430B400B930B300B30B1929B40BCE
:100238001929B50B192920290A128A11E5260A124B
:100248008A1161300A128A11B2260A128A110A1218
:100258008A119B260A128A1183120313B3003308EA
:10026800EC000A128A11DC260A128A110230831263
:100278000313B5000430B400B930B300B30B4229FE
:10028800B40B4229B50B422949290A128A113C228A
:100298000A128A1133280A128A110C2883120313AE
:1002A800B1002730A9002908AC00252A25303206DC
:1002B80003195F2960296C293208A90031088400D4
:1002C8002908831380000130A9002908B107252ACD
:1002D800AD010130A607FF30260784000A128A11F3
:1002E800A9250A128A11B200A900AA012A08003A0F
:1002F80003197F29252A2908003A0319372A643A5D
:1003080003198A290D3A03198A29252A2C088400F9
:1003180083130008AF00840A0008B0000230A90067
:100328002908AC07B01F99299A29A3290330A900E5
:100338002908AD04AF09B009AF0A0319B00AB20120
:10034800B20A3208A9002907013E84000A128A115C
:10035800A9250A128A11AA000A128A11A9250A12C5
:100368008A11AB002B083002031DBC292A082F0272
:100378000318BF29C029C129CB290130A9002908A0
:10038800B20705303206031DCA29CB29A5292D0835
:1003980003390319D029D129DC292D30A9003108C6
:1003A80084002908831380000130A9002908B107B7
:1003B8003208A9002908AE001C2A0A30A000003023
:1003C800A1002E08A9002907013E84000A128A11FB
:1003D800A9250A128A11F2000A128A11A9250A12FD
:1003E8008A11F3003008F5002F08F4000A128A1168
:1003F8001F250A128A11730883120313A3007208B7
:10040800A2000A128A1163250A128A1183120313A1
:100418002008303EAA002A08B2003208A900310894
:1004280084002908831380000130A9002908B10736
:10043800FF30A9002908AE072E0A031D242A252A01
:10044800E1290130A607FF30260784000A128A1125
:10045800A9250A128A11A9002908B2003208031D29
:10046800362A372A5A293108840083138001080064
:10047800823083120313A800DD30A700A70B422A9D
:10048800A80B422A8312031368080A128A115F23F1
:100498000A128A11823083120313A800DD30A700E4
:1004A800A70B542AA80B542A7B088312031399001C
:1004B800823083120313A800DD30A700A70B622A3D
:1004C800A80B622A7A0883120313990082308312D8
:1004D8000313A800DD30A700A70B702AA80B702A09
:1004E800831203136A080A128A115F230A128A11F7
:1004F800823083120313A800DD30A700A70B822ADD
:10050800A80B822A7A088312031399008230831277
:100518000313A800DD30A700A70B902AA80B902A88
:10052800831203136B080A128A115F230A128A11B5
:10053800823083120313A800DD30A700A70BA22A7C
:10054800A80BA22A8312031366089900823083122B
:100558000313A800DD30A700A70BB02AA80BB02A08
:100568007B08831203139900823083120313A800B7
:10057800DD30A700A70BBE2AA80BBE2A7A08831273
:1005880003139900823083120313A800DD30A700FB
:10059800A70BCC2AA80BCC2A080083120313A000AF
:1005A8002008F8007808EE0000300A128A112C267C
:1005B8000A128A114E30F900EB30F800F80BE22AE3
:1005C800F90BE22A03300A128A1149260A128A1103
:1005D8000D30F900FB30F800F80BF02AF90BF02A7F
:1005E800F52A03300A128A1149260A128A110D3097
:1005F800F900FB30F800F80BFF2AF90BFF2A042B4F
:1006080003300A128A1149260A128A110D30F9009C
:10061800FB30F800F80B0E2BF90B0E2B132B0230C6
:100628000A128A1149260A128A110D30F900FB3084
:10063800F800F80B1D2BF90B1D2B222B28300A1262
:100648008A1149260A128A118230F900DD30F80031
:10065800F80B2C2BF90B2C2B312B0C300A128A118E
:1006680049260A128A118230F900DD30F800F80BA9
:100678003B2BF90B3B2B402B01300A128A114926E0
:100688000A128A118230F900DD30F800F80B4A2B83
:10069800F90B4A2B4F2B06300A128A1149260A12E7
:1006A8008A118230F900DD30F800F80B592BF90B6C
:1006B800592B5E2B0800F9006430F2000030F3007B
:1006C800790883120313A400A5012408F40025085F
:1006D800F5000A128A11CA230A128A1172088312B3
:1006E8000313A6002608E6006430F2000030F30089
:1006F8007908A400A5012408F4002508F5000A12C9
:100708008A1133240A128A11720883120313A6006D
:100718002608E5000A30F2000030F3006508A4005E
:10072800A5012408F4002508F5000A128A11CA2335
:100738000A128A11720883120313A6002608FB0006
:100748000A30F2000030F3006508A400A50124086F
:10075800F4002508F5000A128A1133240A128A11B6
:10076800720883120313A6002608FA006608303EB2
:10077800A4002408E6007B08303EA4002408FB00FF
:100788007A08303EA4002408FA00080083120313F4
:10079800A101F31FD02BD12BD82BF209F309F20AB0
:1007A8000319F30AA101A10AF51FDB2BDC2BE52BAA
:1007B800F409F509F40A0319F50A0130F600760878
:1007C800A106A201A301720873040319EC2BED2BF7
:1007D800242CA001A00AFB2B01300310F20DF30D0D
:1007E800FF3E031DF12B0130F6007608A007F31F2A
:1007F800FE2BFF2BF02B01300310A20DA30DFF3EA3
:10080800031D002C73087502031D0C2C720874025A
:10081800031C0F2C102C172C7208F4027308031CED
:10082800F503F502221401300310F30CF20CFF3E1D
:10083800031D182C0130A002031D232C242CFF2B90
:1008480021080319282C292C2E2CA209A309A20A55
:100858000319A30A2308F3002208F2000800F8018C
:10086800F51F372C382C3F2CF409F509F40A031925
:10087800F50AF801F80AF31F422C432C482CF20918
:10088800F309F20A0319F30A7208730403194D2CC9
:100898004E2C7D2CF701F70A5C2C01300310F20D69
:1008A800F30DFF3E031D522C0130F6007608F707C2
:1008B800F31F5F2C602C512C73087502031D662CE6
:1008C80072087402031C692C6A2C702C7208F402DA
:1008D8007308031CF503F50201300310F30CF20C46
:1008E800FF3E031D712C0130F702031D7C2C7D2C6B
:1008F800602C78080319812C822C872CF409F509BF
:10090800F40A0319F50A7508F3007408F2000800E0
:10091800831603130F128F160F170F14831603175E
:1009280088018901831603130614861407108801A9
:1009380085018312031385018601870188018901D6
:100948008316031381130330950016149614181296
:100958001815831603178711193083160313990086
:1009680001309A0083120313981718131816831668
:10097800031318139816831203138C120C128B1777
:100988000B17831603138C120C120B148B150030E3
:10099800F5000130F4008630F300A030F2000A12AE
:1009A8008A11C2260A128A11080083120313A301AE
:1009B800A401022D23087807A1007908A0000318D4
:1009C800A00AA31FE82CA003831203132008A20087
:1009D8002208FF00210884000A128A119F250A12A2
:1009E8008A110A128A110F260A128A1101308312FB
:1009F8000313A3070318A40A0030A40723087807E1
:100A0800A1007908A0000318A00AA31F0C2DA003B9
:100A1800831203132008A2002208FF002108840083
:100A28000A128A119F250A128A11003A031D1D2DE8
:100A38001E2DDE2C0800F701F80172087304031953
:100A4800262D272D5E2DF901F90A352D01300310C9
:100A5800F20DF30DFF3E031D2B2D0130F600760835
:100A6800F907F31F382D392D2A2D01300310F70D02
:100A7800F80DFF3E031D3A2D73087502031D462D20
:100A880072087402031C492D4A2D512D7208F40274
:100A98007308031CF503F502771401300310F30CF7
:100AA800F20CFF3E031D522D0130F902031D5D2D8E
:100AB8005E2D392D7808F3007708F20008008312BC
:100AC80003132008210403196A2D6B2D9A2DA50103
:100AD800A50A792D01300310A00DA10DFF3E031DBD
:100AE8006F2D0130A4002408A507A11F7C2D7D2DA2
:100AF8006E2D21082302031D832D20082202031CCA
:100B0800862D872D8D2D2008A2022108031CA30302
:100B1800A30201300310A10CA00CFF3E031D8E2D73
:100B28000130A502031D992D9A2D7D2D2308A100C2
:100B38002208A0000800FF1BA92D83137F18831724
:100B48000008840A0319FF0A080005308A0004080F
:100B5800840A82070034013400340A3400346434CF
:100B68000034E83403341034273443344F344E34DB
:100B780054343A34203445344E3443343A342034EF
:100B8800543445344D3450343A3400344F344E34B0
:100B980020342034003425346434203400344F3475
:100BA800463446340034F900F92D7808BF3E0A125D
:100BB8008A1149260A128A110E2E7808933E0A12C3
:100BC8008A1149260A128A110E2E7808D33E0A1273
:100BD8008A1149260A128A110E2E78087F3E0A12B7
:100BE8008A1149260A128A110E2E790883120313D4
:100BF800A000A1012108003A0319032EF12D2008B5
:100C0800023A0319D92D013A0319E12D073A0319BC
:100C1800E92DF12D0800F70083120313E101E10A21
:100C28007708F0390A128A1181260A128A11770880
:100C3800F60003300310F60DFF3E031D1E2E0310B1
:100C4800760DF0390A128A1181260A128A110800D3
:100C5800F3000A128A11E5260A128A118312031375
:100C68006E080A128A11B2260A128A1173088312B0
:100C780003136F040A128A11B2260A128A110A1281
:100C88008A11DC260A128A110800F700831203135E
:100C9800E1017708F0390A128A1181260A128A11AD
:100CA8007708F60003300310F60DFF3E031D572E9C
:100CB8000310760DF0390A128A1181260A128A1158
:100CC80008000B1C682E692E7A2E8312031306184F
:100CD8006E2E6F2E732EEA01EA0A8814792E061CEE
:100CE800762E772E792E8810EA010B1071088A006B
:100CF800700E8300FE0E7E0E0900F50083120313AA
:100D08006108F4007408F504750804380A128A1199
:100D18002C260A128A117508FB390A128A112C2608
:100D28000A128A112130F400F40B982E08000A12D6
:100D38008A11CF260A128A1183160313911583127A
:100D48008C1DA72EA82EA32E8C110A128A11CF262D
:100D58000A128A118312031313080800F2000A12F8
:100D68008A11CF260A128A1172088312031393007C
:100D78008C1DBF2EC02EBC2E8C110800283083126B
:100D8800031394008316031391019401CF30930049
:100D9800871507160800831603131419D42ED52EA9
:100DA800CF2E11081F39031DDA2EDB2ECF2E080097
:100DB8000A128A11CF260A128A11831603131115F3
:100DC80008000A128A11CF260A128A118316031301
:060DD800111408000834AC
:04400E00D420FF3F7C
:00000001FF
