:020000040000FA
:060000000A128A110C280F
:10000800FE00030EF0000A08F1000A128A112B2FD5
:100018000A128A110F28FA01FB0183120313E10166
:10002800E201E301E401E501E601E701E801E90194
:10003800EA01EB0183010A128A1122280A128A11A5
:1000480020250A128A110A128A1112240A128A1108
:10005800831203136A08B3003308E9006B08B3007E
:100068003308E7006708B3003308E0006808B30006
:100078003308DF006908B3003308DE000A128A116A
:1000880061270A128A11F601F60A01300A128A114A
:10009800C8240A128A110B30F7008030F8000A12BF
:1000A8008A116D250A128A111D3083120313B300B9
:1000B8003308A6006008B400B5013408A700350865
:1000C800A80036300A128A114D210A128A111D30F1
:1000D80083120313B3003308A6005E08B400B50109
:1000E8003408A7003508A8004A300A128A114D21A1
:1000F8000A128A11023083120313B3003308F60080
:1001080002300A128A11C8240A128A113630F700FE
:100118000030F8000A128A116D250A128A110E3071
:1001280083120313B3003308F60002300A128A114F
:10013800C8240A128A114A30F7000030F8000A125F
:100148008A116D250A128A11831203135F03031D96
:10015800AE28AF28C3280830B3003308F6000230B1
:100168000A128A11C8240A128A112530F700803031
:10017800F8000A128A116D250A128A11D628083049
:10018800B3003308F60002300A128A11C8240A1292
:100198008A112130F7008030F8000A128A116D2583
:1001A8000A128A110B3083120313B5002630B400EB
:1001B8005D30B300B30BDE28B40BDE28B50BDE28A8
:1001C8000A128A118E270A128A115130F200003061
:1001D800F3000A128A117B270A128A110030F200F2
:1001E800F3000A128A11DB260A128A117208831296
:1001F8000313B3003308EB000A128A1185270A1289
:100208008A11023083120313B5000430B400B930E8
:10021800B300B30B0D29B40B0D29B50B0D29142907
:100228000A128A118E270A128A116130F2000030F0
:10023800F3000A128A117B270A128A110030F20091
:10024800F3000A128A11DB260A128A117208831235
:100258000313B3003308EA000A128A1185270A1229
:100268008A11023083120313B5000430B400B93088
:10027800B300B30B3D29B40B3D29B50B3D294429E7
:100288000A128A1137220A128A112C280A128A1194
:100298000C2883120313B1002730A9002908AC00E9
:1002A800202A2530320603195A295B296729320882
:1002B800A900310884002908831380000130A900AF
:1002C8002908B107202AAD010130A607FF3026070B
:1002D80084000A128A11AE260A128A11B200A900F5
:1002E800AA012A08003A03197A29202A2908003A7B
:1002F8000319322A643A031985290D3A0319852905
:10030800202A2C08840083130008AF00840A000800
:10031800B0000230A9002908AC07B01F942995291C
:100328009E290330A9002908AD04AF09B009AF0A16
:100338000319B00AB201B20A3208A9002907013E1E
:1003480084000A128A11AE260A128A11AA000A1219
:100358008A11AE260A128A11AB002B083002031D3F
:10036800B7292A082F020318BA29BB29BC29C6298C
:100378000130A9002908B20705303206031DC52936
:10038800C629A0292D0803390319CB29CC29D72937
:100398002D30A9003108840029088313800001301A
:1003A800A9002908B1073208A9002908AE00172AB0
:1003B8000A30A0000030A1002E08A9002907013E3C
:1003C80084000A128A11AE260A128A11F2000A1251
:1003D8008A11AE260A128A11F3003008F5002F0898
:1003E800F4000A128A11B3250A128A1173088312BB
:1003F8000313A3007208A2000A128A11F7250A1231
:100408008A11831203132008303EAA002A08B2007A
:100418003208A900310884002908831380000130BC
:10042800A9002908B107FF30A9002908AE072E0A3C
:10043800031D1F2A202ADC290130A607FF302607C2
:1004480084000A128A11AE260A128A11A900290804
:10045800B2003208031D312A322A55293108840096
:10046800831380010800413083120313A800ED3084
:10047800A700A70B3D2AA80B3D2A422A8312031383
:1004880067080A128A11D6220A128A114130831289
:100498000313A800ED30A700A70B502AA80B502A79
:1004A800552A7B08831203139900413083120313E2
:1004B800A800ED30A700A70B5F2AA80B5F2A642AC3
:1004C8007A08831203139900413083120313A8009A
:1004D800ED30A700A70B6E2AA80B6E2A732A831289
:1004E800031368080A128A11D6220A128A114130A7
:1004F80083120313A800ED30A700A70B812AA80BCD
:10050800812A862A7A0883120313990041308312BC
:100518000313A800ED30A700A70B902AA80B902A78
:10052800952A8312031369080A128A11D6220A121D
:100538008A11413083120313A800ED30A700A70BDE
:10054800A32AA80BA32AA82A8312031365089900D3
:10055800413083120313A800ED30A700A70BB22A7D
:10056800A80BB22AB72A7B088312031399004130DB
:1005780083120313A800ED30A700A70BC12AA80B0C
:10058800C12AC62A7A0883120313990041308312BC
:100598000313A800ED30A700A70BD02AA80BD02A78
:1005A800D52A0800F9006430F2000030F300790819
:1005B80083120313A400A5012408F4002508F500FC
:1005C8000A128A1141230A128A117208831203132C
:1005D800A6002608E5006430F2000030F300790830
:1005E800A400A5012408F4002508F5000A128A11C0
:1005F8006F240A128A11720883120313A6002608B0
:10060800E4000A30F2000030F3006408A400A501F9
:100618002408F4002508F5000A128A1141230A1259
:100628008A11720883120313A6002608FB000A30F9
:10063800F2000030F3006408A400A5012408F400C7
:100648002508F5000A128A116F240A128A11720805
:1006580083120313A6002608FA006508303EA4009A
:100668002408E5007B08303EA4002408FB007A0833
:10067800303EA4002408FA00080083120313A101E5
:10068800F31F472B482B4F2BF209F309F20A0319E2
:10069800F30AA101A10AF51F522B532B5C2BF40975
:1006A800F509F40A0319F50A0130F6007608A106DF
:1006B800A201A301720873040319632B642B9B2BFB
:1006C800A001A00A722B01300310F20DF30DFF3EBA
:1006D800031D682B0130F6007608A007F31F752B61
:1006E800762B672B01300310A20DA30DFF3E031DCF
:1006F800772B73087502031D832B72087402031C81
:10070800862B872B8E2B7208F4027308031CF503C3
:10071800F502221401300310F30CF20CFF3E031D06
:100728008F2B0130A002031D9A2B9B2B762B2108BF
:1007380003199F2BA02BA52BA209A309A20A031911
:10074800A30A2308F3002208F200080000308312ED
:100758000313A4000030A3000030A2000030A10061
:1007680075087404730472040319BB2BBC2B092C81
:10077800A501A50ACC2B0130A0000310F20DF30D42
:10078800F40DF50DA00BC12B0130A0002008A50722
:10079800F51FCF2BD02BBF2B0130A0000310A10DCC
:1007A800A20DA30DA40DA00BD22B75087902031D71
:1007B800E72B74087802031DE72B73087702031DE3
:1007C800E72B72087602031CEA2BEB2BFA2B720834
:1007D800F6027308031C730FF7027408031C740FE6
:1007E800F8027508031C750FF90221140130031073
:1007F800F50CF40CF30CF20CFF3E031DFB2B01303F
:10080800A502031D082C092CD02B2408F500230869
:10081800F4002208F3002108F200080000300A1250
:100828008A1109270A128A113430F700F130F600CC
:10083800F60B1C2CF70B1C2C212C03300A128A11E6
:1008480047270A128A110D30F700FB30F600F60B25
:100858002B2CF70B2B2C302C03300A128A1147272C
:100868000A128A111D30F7009130F600F60B3A2C67
:10087800F70B3A2C03300A128A1147270A128A11F9
:1008880002300A128A1147270A128A1102300A1204
:100898008A1147270A128A1108300A128A11472733
:1008A8000A128A1100300A128A1147270A128A117D
:1008B8000C300A128A1147270A128A1100300A12CC
:1008C8008A1147270A128A1106300A128A11472705
:1008D8000A128A110800F801F51F732C742C7B2C5E
:1008E800F409F509F40A0319F50AF801F80AF31FDF
:1008F8007E2C7F2C842CF209F309F20A0319F30ADF
:10090800720873040319892C8A2CB92CF701F70A89
:10091800982C01300310F20DF30DFF3E031D8E2CB1
:100928000130F6007608F707F31F9B2C9C2C8D2CC2
:1009380073087502031DA22C72087402031CA52CEF
:10094800A62CAC2C7208F4027308031CF503F502FC
:1009580001300310F30CF20CFF3E031DAD2C0130E7
:10096800F702031DB82CB92C9C2C78080319BD2C50
:10097800BE2CC32CF409F509F40A0319F50A750805
:10098800F3007408F200080083120313A000200388
:10099800031DCF2CD02CF52C76087F3EF700770866
:1009A800A3002308F70004300310F70CFF3E031DD3
:1009B800D82C7708F8007808A10023080F39F70029
:1009C8007708A20021080A128A1147270A128A11F9
:1009D8008312031322080A128A1147270A128A115E
:1009E8001F2D02302006031DFA2CFB2C1F2D760824
:1009F800BF3EF7007708A3002308F7000430031070
:100A0800F70CFF3E031D032D7708F8007808A100B6
:100A180023080F39F7007708A20021080A128A1163
:100A280047270A128A118312031322080A128A110D
:100A380047270A128A110800831603130F128F160C
:100A48000F170F14831603178801890183160313E0
:100A58000614071088018501831203138501860196
:100A680087018801890183160313811301309500DA
:100A780016141812181583160317871119308316C0
:100A88000313990001309A0083120313981718135F
:100A980018168316031318139816831203138C124F
:100AA8000C128B170B17831603138C120C120B14D2
:100AB8008B15003083120313A9000130A80086307B
:100AC800A700A030A6000A128A116C260A128A1101
:100AD800080083120313A301A401962D23087707A6
:100AE800A1007808A0000318A00AA31F7C2DA0036A
:100AF800831203132008A2002208FF0021088400A3
:100B08000A128A11A4260A128A110A128A11332695
:100B18000A128A11013083120313A3070318A40AC7
:100B28000030A40723087707A1007808A00003185D
:100B3800A00AA31FA02DA003831203132008A2005C
:100B48002208FF00210884000A128A11A4260A122A
:100B58008A11003A031DB12DB22D722D0800F7013C
:100B6800F801720873040319BA2DBB2DF22DF9018F
:100B7800F90AC92D01300310F20DF30DFF3E031DD4
:100B8800BF2D0130F6007608F907F31FCC2DCD2DC7
:100B9800BE2D01300310F70DF80DFF3E031DCE2DBD
:100BA80073087502031DDA2D72087402031CDD2D0B
:100BB800DE2DE52D7208F4027308031CF503F50217
:100BC800771401300310F30CF20CFF3E031DE62DE1
:100BD8000130F902031DF12DF22DCD2D7808F30017
:100BE8007708F20008008312031320082104031970
:100BF800FE2DFF2D2E2EA501A50A0D2E0130031066
:100C0800A00DA10DFF3E031D032E0130A4002408F2
:100C1800A507A11F102E112E022E21082302031D45
:100C2800172E20082202031C1A2E1B2E212E200804
:100C3800A2022108031CA303A30201300310A10C84
:100C4800A00CFF3E031D222E0130A502031D2D2EF0
:100C58002E2E112E2308A1002208A0000800F6005D
:100C680076080F39F3007308F4007608F039F300BA
:100C78007308F5008312031308157508F300043090
:100C88000310F30CFF3E031D442E73080A128A1149
:100C980009270A128A118312031388151A30F300E0
:100CA800F30B542E000083120313881174080A12E0
:100CB8008A1109270A128A118312031388151A3018
:100CC800F300F30B652E000083120313881108004C
:100CD800283083120313940083160313910183129F
:100CE80003132608AA002708AB002808AC00290827
:100CF800AD0002300310AA0DAB0DAC0DAD0DFF3EDB
:100D0800031D7E2E2D08F5002C08F4002B08F30097
:100D18002A08F2000030F9007A30F8001230F700A3
:100D28000030F6000A128A11AA230A128A117208E0
:100D3800FF3E8316031393009401871507160800D6
:100D4800FF1BAE2E83137F1883170008840A03192C
:100D5800FF0A080006308A000408840A8207003463
:100D6800013400340A34003464340034E834033481
:100D78001034273443344F344E3454343A34203406
:100D880053345434413454343A342034543445348C
:100D98004D3450343A34003425346434203400342B
:100DA8004F344634463400344F344E3400340A123B
:100DB8008A116E270A128A118316031391150A12D3
:100DC8008A116E270A128A11831203131308F4007A
:100DD800F5017408F6007508F7000A128A116E27E3
:100DE8000A128A1172037304031DFB2EFC2E002FB6
:100DF800831603139112032F8316031391161116EA
:100E08007708F3007608F2000800F200721C0D2F34
:100E18000E2F122F831203130816152F8312031394
:100E28000812F21C182F192F1B2F88161C2F881236
:100E3800721D1F2F202F222F0817232F0813F21D92
:100E4800262F272F292F88172A2F881308000B1CD5
:100E58002E2F2F2F402F831203130618342F352FD0
:100E6800392F0814E801E80A3F2F061C3C2F3D2FB4
:100E78003F2F0810E8010B1071088A00700E8300DC
:100E8800FE0E7E0E0900F500831203130811750883
:100E98000A128A1109270A128A1183120313881564
:100EA8000B30F4006230F300F30B582FF40B582F7B
:100EB8000000831203138811080000300A128A11F7
:100EC80047270A128A1101300A128A1147270A1283
:100ED8008A110800831603131419732F742F6E2FA9
:100EE80011081F39031D792F7A2F6E2F08000A1257
:100EF8008A116E270A128A1172088312031393004B
:100F080008000A128A116E270A128A11831603131F
:100F1800111508000A128A116E270A128A118316FF
:060F280003131114080080
:04400E00D420FF3F7C
:00000001FF
