:020000040000FA
:060000000A128A110C280F
:10000800FE00030EF1000A08F2000A128A111528F0
:100018000A128A110F28F401F50183010A128A11C4
:10002800CB280B1C182819282A2883120313061812
:100038001E281F2823280814F401F40A2928061C5E
:100048002628272829280810F4010B1083120313E7
:100058008C1D2F28302886281412141B3428352884
:100068003928941F3828392840281308F0007008C8
:10007800F50014139413141683160313941A4528C1
:1000880046286328141949284A2863288312031329
:100098001308F0007008F5008C111416831603136A
:1000A800141C572858285228831203131308F000E9
:1000B8007008F4005330F000F00B60288328941A7D
:1000C800662867288328141D6A286B2883288312CA
:1000D80003131308F0007008F500831603131410B7
:1000E800740883120313930014165330F000F00BB6
:1000F8007B28831603131418822883287D288312EB
:1001080003138C1172088A00710E8300FE0E7E0E96
:10011800090083160317880189018316031306143F
:10012800081083120313850186018701880189015C
:10013800831603130F128F160F170F148113013034
:10014800950016148B170B170B148B1560300A12B9
:100158008A11B1200A128A110800F3007308831665
:1001680003139300363083120313940080308316F0
:100178000313940001309100871507168B170B178E
:10018800831203138C11831603138C1508000A12AB
:100198008A118D200A128A11D0280A128A110C2875
:04400E00D420FF3F7C
:00000001FF
