:020000040000FA
:060000000A128A110C280F
:10000800FE00030EF1000A08F2000A128A111428F1
:100018000A128A110F28F70183010A128A1130295E
:10002800831203130C1F19281A2825281F0CF00007
:10003800700C0F39003A031D2228232825281E0892
:1000480088000C138C1D29282A287E281412141BBA
:100058002E282F283328941F322833283A281308AB
:10006800F0007008F7001413941314168316031382
:10007800941A3F2840285B281419432844285B28F1
:10008800831203131308F0007008F7008C1114167C
:1000980083160313141C512852284C288312031367
:1000A800130888005330F000F00B58287B28941A66
:1000B8005E285F287B28141D622863287B2883120A
:1000C80003131308F0007008F700831603131410C5
:1000D800831203130808930014165330F000F00B32
:1000E80073288316031314187A287B28752883121B
:1000F80003138C1172088A00710E8300FE0E7E0EA7
:100108000900F500D328C330831203139F0521305B
:10011800F300F30B8D28831203131F139F131F146F
:10012800831603139F139F121F12E928C3308312EB
:1001380003139F052130F300F30BA0288312031348
:100148001F179F131F14831603139F139F121F1249
:10015800E928C330831203139F052130F300F30B02
:10016800B328831203131F139F171F148316031337
:100178009F139F121F12E928C330831203139F0590
:100188002130F300F30BC628831203131F179F17A0
:100198001F14831603139F139F121F12E928750853
:1001A800F300F4017408003A0319DB28E9287308FE
:1001B800003A03198728013A03199A28033A0319C0
:1001C800AD28013A0319C028E9280800033083162E
:1001D8000317880089018316031305148514880101
:1001E800831203138501860187018801890183161B
:1001F80003130F128F160F170F1401300A128A11EA
:1002080085200A128A118B170B17831603130C17F4
:10021800831203130C1360300A128A1116210A1272
:100228008A110800F300730883160313930036300D
:100238008312031394008030831603139400013053
:100248009100871507168B170B17831203138C1150
:10025800831603138C1508000A128A11EA200A1261
:100268008A11831203139F183A293B293529213013
:10027800F600F60B3D29831203139F1435290A1241
:040288008A110C28A3
:04400E00D420FF3F7C
:00000001FF
