:020000040000FA
:060000000A128A110C280F
:10000800FE00030EF3000A08F4000A128A111A28E7
:100018000A128A110F280A128A111B210A128A1140
:10002800F700F60183010A128A11122983120313B9
:100038008C1D1F28202876281412141B24282528F4
:100048002928941F2828292830281308F000700828
:10005800F60014139413141683160313941A3528F0
:1000680036285328141939283A2853288312031399
:100078001308F0007008F6008C1114168316031389
:10008800141C472848284228831203131308F00039
:100098007008F7005330F000F00B50287328941ABA
:1000A800562857287328141D5A285B28732883124A
:1000B80003131308F0007008F600831603131410D6
:1000C800770883120313930014165330F000F00BD3
:1000D8006B28831603131418722873286D2883124B
:1000E80003138C110B1C79287A28CC2806187D2834
:1000F8007E28C628033088000330F2008A30F100D9
:100108005530F000F00B8628F10B8628F20B862874
:100118008D2806308312031388000330F2008A30DA
:10012800F1005530F000F00B9728F10B9728F20BEF
:1001380097289E280C308312031388000330F2009E
:100148008A30F1005530F000F00BA828F10BA828F0
:10015800F20BA828AF280930831203138800033054
:10016800F2008A30F1005530F000F00BB928F10B9D
:10017800B928F20BB928C0287708FF3EF0007008AC
:10018800F700CB28061CC928CA28CB2888010B10E1
:1001980074088A00730E8300FE0E7E0E0900831613
:1001A8000317880189018316031306148801850142
:1001B800831203138501860187018801890183164B
:1001C80003130F128F160F170F14811301309500A8
:1001D80016148B170B170B148B1550300A128A1133
:1001E800F8200A128A110800F5007508831603130F
:1001F8009300363083120313940080308316031360
:10020800940001309100871507168B170B1783127E
:1002180003138C11831603138C1508000A128A1114
:10022800D3200A128A1117290A128A110C280A34B3
:04400E00D420FF3F7C
:00000001FF
