:020000040000FA
:060000000A128A110C280F
:10000800FE00030EF3000A08F4000A128A111528EC
:100018000A128A110F28F601F70183010A128A11C0
:100028000C290B1C182819286B288312031306188F
:100038001E281F286428033088000330F2008A3005
:10004800F1005530F000F00B2728F10B2728F20BB0
:1000580027282E2806308312031388000330F20065
:100068008A30F1005530F000F00B3828F10B3828B1
:10007800F20B38283F280C30831203138800033012
:10008800F2008A30F1005530F000F00B4928F10BEE
:100098004928F20B49285028093083120313880095
:1000A8000330F2008A30F1005530F000F00B5A2886
:1000B800F10B5A28F20B5A286128F601F60A6A2829
:1000C800061C672868286A288801F6010B10831225
:1000D80003138C1D70287128C7281412141B752847
:1000E80076287A28941F79287A2881281308F0001E
:1000F8007008F70014139413141683160313941A34
:1001080086288728A42814198A288B28A4288312CB
:1001180003131308F0007008F7008C1114168316E7
:100128000313141C9828992893288312031313087F
:10013800F0007008F6005330F000F00BA128C42836
:10014800941AA728A828C428141DAB28AC28C428AA
:10015800831203131308F0007008F70083160313C3
:100168001410760883120313930014165330F0000A
:10017800F00BBC28831603131418C328C428BE2800
:10018800831203138C1174088A00730E8300FE0E09
:100198007E0E09008316031788018901831603134D
:1001A80006148801831203138501860187018801DB
:1001B8008901831603130F128F160F170F1481135B
:1001C8000130950016148B170B170B148B15503034
:1001D8000A128A11F2200A128A110800F50075081D
:1001E8008316031393003630831203139400803070
:1001F80083160313940001309100871507168B1797
:100208000B17831203138C11831603138C15080024
:100218000A128A11CE200A128A1111290A128A1189
:020228000C28A0
:04400E00D420FF3F7C
:00000001FF
