:020000040000FA
:060000000A128A110C280F
:10000800FE00030EF3000A08F4000A128A111628EB
:100018000A128A110F28F901FA01FB0183010A1259
:100028008A11D928831203131F0CF200720C0F399E
:10003800003A031D202821283E281E08F2007208D5
:10004800FB0056307B0203182A282B2830280A1276
:100058008A111F210A128A1156307B02031C352887
:1000680036283B280A128A1137210A128A1183126C
:1000780003130C138C1D4128422898281412141BB2
:10008800462847284B28941F4A284B2852281308EB
:10009800F2007208FA00141394131416831603134B
:1000A800941A57285828752814195B285C2875282D
:1000B800831203131308F2007208FA008C11141645
:1000C80083160313141C69286A28642883120313EF
:1000D8001308F2007208F9005330F200F20B72288C
:1000E8009528941A782879289528141D7C287D2825
:1000F8009528831203131308F2007208FA00831676
:100108000313141079088312031393001416533041
:10011800F200F20B8D2883160313141894289528DF
:100128008F28831203138C1174088A00730E8300BE
:10013800FE0E7E0E09000130831603178800890120
:100148000130831603138500880187018312031386
:1001580085018601870188018901831603130F121F
:100168008F160F170F1450300A128A1105210A1220
:100178008A11831603139F131F129F1283120313EE
:100188001F083F3940389F001F14C3309F051030A7
:10019800F600F60BCD2800008B170B1783160313F8
:1001A8000C17831203130C1308000A128A119F20DC
:1001B8000A128A11831203139F18E328E428F028EF
:1001C8004130F800EE30F700F70BE828F80BE82884
:1001D8000000831203139F1456307B02031CF5287A
:1001E800F628DE2859307B020318FB28FC28DE2875
:1001F8007908013EF7007708F900DE280A128A110B
:100208000C28F50075088316031393003630831203
:100218000313940080308316031394000130910077
:10022800871507168B170B17831203138C11831668
:1002380003138C1508008312031388140330F1008C
:100248009730F000F00B2629F10B26292B29831271
:10025800031388101830F1005F30F000F00B3229DA
:10026800F10B32290800831203138814C730F000F9
:100278003D29F00B3C29402941298312031388109A
:100288001930F100AB30F000F00B4829F10B482988
:040298004D290800E4
:04400E00D420FF3F7C
:00000001FF
